{
  "contractName": "Engager",
  "abi": [
    {
      "inputs": [],
      "stateMutability": "nonpayable",
      "type": "constructor"
    },
    {
      "anonymous": false,
      "inputs": [
        {
          "indexed": false,
          "internalType": "uint256",
          "name": "id",
          "type": "uint256"
        },
        {
          "indexed": false,
          "internalType": "string",
          "name": "hash",
          "type": "string"
        },
        {
          "indexed": false,
          "internalType": "string",
          "name": "description",
          "type": "string"
        },
        {
          "indexed": false,
          "internalType": "enum Engager.MediaType",
          "name": "mediaType",
          "type": "uint8"
        },
        {
          "indexed": false,
          "internalType": "uint256",
          "name": "tipAmount",
          "type": "uint256"
        },
        {
          "indexed": false,
          "internalType": "address payable",
          "name": "author",
          "type": "address"
        }
      ],
      "name": "MediaCreated",
      "type": "event"
    },
    {
      "anonymous": false,
      "inputs": [
        {
          "indexed": false,
          "internalType": "uint256",
          "name": "id",
          "type": "uint256"
        },
        {
          "indexed": false,
          "internalType": "string",
          "name": "hash",
          "type": "string"
        },
        {
          "indexed": false,
          "internalType": "string",
          "name": "description",
          "type": "string"
        },
        {
          "indexed": false,
          "internalType": "enum Engager.MediaType",
          "name": "mediaType",
          "type": "uint8"
        },
        {
          "indexed": false,
          "internalType": "uint256",
          "name": "tipAmount",
          "type": "uint256"
        },
        {
          "indexed": false,
          "internalType": "address payable",
          "name": "author",
          "type": "address"
        }
      ],
      "name": "MediaTipped",
      "type": "event"
    },
    {
      "inputs": [
        {
          "internalType": "uint256",
          "name": "",
          "type": "uint256"
        }
      ],
      "name": "media",
      "outputs": [
        {
          "internalType": "uint256",
          "name": "id",
          "type": "uint256"
        },
        {
          "internalType": "string",
          "name": "hash",
          "type": "string"
        },
        {
          "internalType": "string",
          "name": "description",
          "type": "string"
        },
        {
          "internalType": "enum Engager.MediaType",
          "name": "mediaType",
          "type": "uint8"
        },
        {
          "internalType": "uint256",
          "name": "tipAmount",
          "type": "uint256"
        },
        {
          "internalType": "address payable",
          "name": "author",
          "type": "address"
        }
      ],
      "stateMutability": "view",
      "type": "function",
      "constant": true
    },
    {
      "inputs": [],
      "name": "mediaCount",
      "outputs": [
        {
          "internalType": "uint256",
          "name": "",
          "type": "uint256"
        }
      ],
      "stateMutability": "view",
      "type": "function",
      "constant": true
    },
    {
      "inputs": [
        {
          "internalType": "uint256",
          "name": "",
          "type": "uint256"
        },
        {
          "internalType": "address",
          "name": "",
          "type": "address"
        }
      ],
      "name": "mediaTips",
      "outputs": [
        {
          "internalType": "uint256",
          "name": "",
          "type": "uint256"
        }
      ],
      "stateMutability": "view",
      "type": "function",
      "constant": true
    },
    {
      "inputs": [],
      "name": "name",
      "outputs": [
        {
          "internalType": "string",
          "name": "",
          "type": "string"
        }
      ],
      "stateMutability": "view",
      "type": "function",
      "constant": true
    },
    {
      "inputs": [
        {
          "internalType": "string",
          "name": "_mediaHash",
          "type": "string"
        },
        {
          "internalType": "string",
          "name": "_description",
          "type": "string"
        },
        {
          "internalType": "enum Engager.MediaType",
          "name": "_mediaType",
          "type": "uint8"
        }
      ],
      "name": "uploadMedia",
      "outputs": [],
      "stateMutability": "nonpayable",
      "type": "function"
    },
    {
      "inputs": [
        {
          "internalType": "uint256",
          "name": "_id",
          "type": "uint256"
        }
      ],
      "name": "tipMediaOwner",
      "outputs": [],
      "stateMutability": "payable",
      "type": "function",
      "payable": true
    }
  ],
  "bytecode": "0x608060405260006001553480156200001657600080fd5b506040518060400160405280600781526020017f456e676167657200000000000000000000000000000000000000000000000000815250600090816200005d9190620002de565b50620003c5565b600081519050919050565b7f4e487b7100000000000000000000000000000000000000000000000000000000600052604160045260246000fd5b7f4e487b7100000000000000000000000000000000000000000000000000000000600052602260045260246000fd5b60006002820490506001821680620000e657607f821691505b602082108103620000fc57620000fb6200009e565b5b50919050565b60008190508160005260206000209050919050565b60006020601f8301049050919050565b600082821b905092915050565b600060088302620001667fffffffffffffffffffffffffffffffffffffffffffffffffffffffffffffffff8262000127565b62000172868362000127565b95508019841693508086168417925050509392505050565b6000819050919050565b6000819050919050565b6000620001bf620001b9620001b3846200018a565b62000194565b6200018a565b9050919050565b6000819050919050565b620001db836200019e565b620001f3620001ea82620001c6565b84845462000134565b825550505050565b600090565b6200020a620001fb565b62000217818484620001d0565b505050565b5b818110156200023f576200023360008262000200565b6001810190506200021d565b5050565b601f8211156200028e57620002588162000102565b620002638462000117565b8101602085101562000273578190505b6200028b620002828562000117565b8301826200021c565b50505b505050565b600082821c905092915050565b6000620002b36000198460080262000293565b1980831691505092915050565b6000620002ce8383620002a0565b9150826002028217905092915050565b620002e98262000064565b67ffffffffffffffff8111156200030557620003046200006f565b5b620003118254620000cd565b6200031e82828562000243565b600060209050601f83116001811462000356576000841562000341578287015190505b6200034d8582620002c0565b865550620003bd565b601f198416620003668662000102565b60005b82811015620003905784890151825560018201915060208501945060208101905062000369565b86831015620003b05784890151620003ac601f891682620002a0565b8355505b6001600288020188555050505b505050505050565b6112c380620003d56000396000f3fe6080604052600436106100555760003560e01c806306fdde031461005a5780632f62aecd146100855780639c339fb3146100c7578063bafd232514610104578063fba37b631461012f578063ff1db0811461014b575b600080fd5b34801561006657600080fd5b5061006f610174565b60405161007c9190610a0d565b60405180910390f35b34801561009157600080fd5b506100ac60048036038101906100a79190610a79565b610202565b6040516100be96959493929190610b6d565b60405180910390f35b3480156100d357600080fd5b506100ee60048036038101906100e99190610c1a565b61037b565b6040516100fb9190610c5a565b60405180910390f35b34801561011057600080fd5b506101196103a0565b6040516101269190610c5a565b60405180910390f35b61014960048036038101906101449190610a79565b6103a6565b005b34801561015757600080fd5b50610172600480360381019061016d9190610dcf565b6107a0565b005b6000805461018190610e89565b80601f01602080910402602001604051908101604052809291908181526020018280546101ad90610e89565b80156101fa5780601f106101cf576101008083540402835291602001916101fa565b820191906000526020600020905b8154815290600101906020018083116101dd57829003601f168201915b505050505081565b600260205280600052604060002060009150905080600001549080600101805461022b90610e89565b80601f016020809104026020016040519081016040528092919081815260200182805461025790610e89565b80156102a45780601f10610279576101008083540402835291602001916102a4565b820191906000526020600020905b81548152906001019060200180831161028757829003601f168201915b5050505050908060020180546102b990610e89565b80601f01602080910402602001604051908101604052809291908181526020018280546102e590610e89565b80156103325780601f1061030757610100808354040283529160200191610332565b820191906000526020600020905b81548152906001019060200180831161031557829003601f168201915b5050505050908060030160009054906101000a900460ff16908060040154908060050160009054906101000a900473ffffffffffffffffffffffffffffffffffffffff16905086565b6003602052816000526040600020602052806000526040600020600091509150505481565b60015481565b6000811180156103b857506001548111155b6103c157600080fd5b6000600260008381526020019081526020016000206040518060c0016040529081600082015481526020016001820180546103fb90610e89565b80601f016020809104026020016040519081016040528092919081815260200182805461042790610e89565b80156104745780601f1061044957610100808354040283529160200191610474565b820191906000526020600020905b81548152906001019060200180831161045757829003601f168201915b5050505050815260200160028201805461048d90610e89565b80601f01602080910402602001604051908101604052809291908181526020018280546104b990610e89565b80156105065780601f106104db57610100808354040283529160200191610506565b820191906000526020600020905b8154815290600101906020018083116104e957829003601f168201915b505050505081526020016003820160009054906101000a900460ff16600181111561053457610533610ab5565b5b600181111561054657610545610ab5565b5b8152602001600482015481526020016005820160009054906101000a900473ffffffffffffffffffffffffffffffffffffffff1673ffffffffffffffffffffffffffffffffffffffff1673ffffffffffffffffffffffffffffffffffffffff1681525050905060008160a0015190508073ffffffffffffffffffffffffffffffffffffffff166108fc349081150290604051600060405180830381858888f193505050501580156105fb573d6000803e3d6000fd5b50348260800181815161060e9190610ee9565b91508181525050346003600085815260200190815260200160002060003373ffffffffffffffffffffffffffffffffffffffff1673ffffffffffffffffffffffffffffffffffffffff16815260200190815260200160002060008282546106759190610ee9565b9250508190555081600260008581526020019081526020016000206000820151816000015560208201518160010190816106af91906110c9565b5060408201518160020190816106c591906110c9565b5060608201518160030160006101000a81548160ff021916908360018111156106f1576106f0610ab5565b5b02179055506080820151816004015560a08201518160050160006101000a81548173ffffffffffffffffffffffffffffffffffffffff021916908373ffffffffffffffffffffffffffffffffffffffff1602179055509050507f1f33c02e7ee293cd40d1d5af05308e5d6afcb33a96bcd261449bff99b6934ed58383602001518460400151856060015186608001518660405161079396959493929190610b6d565b60405180910390a1505050565b60008351116107ae57600080fd5b60008251116107bc57600080fd5b600073ffffffffffffffffffffffffffffffffffffffff163373ffffffffffffffffffffffffffffffffffffffff16036107f557600080fd5b600160008154809291906108089061119b565b91905055506040518060c00160405280600154815260200184815260200183815260200182600181111561083f5761083e610ab5565b5b8152602001600081526020013373ffffffffffffffffffffffffffffffffffffffff1681525060026000600154815260200190815260200160002060008201518160000155602082015181600101908161089991906110c9565b5060408201518160020190816108af91906110c9565b5060608201518160030160006101000a81548160ff021916908360018111156108db576108da610ab5565b5b02179055506080820151816004015560a08201518160050160006101000a81548173ffffffffffffffffffffffffffffffffffffffff021916908373ffffffffffffffffffffffffffffffffffffffff1602179055509050507fa9bdf3cf6d349d2590522ddb42a8c0b79c1d96464037df548d61bae8cb532f066001548484846000336040516109709695949392919061121e565b60405180910390a1505050565b600081519050919050565b600082825260208201905092915050565b60005b838110156109b757808201518184015260208101905061099c565b60008484015250505050565b6000601f19601f8301169050919050565b60006109df8261097d565b6109e98185610988565b93506109f9818560208601610999565b610a02816109c3565b840191505092915050565b60006020820190508181036000830152610a2781846109d4565b905092915050565b6000604051905090565b600080fd5b600080fd5b6000819050919050565b610a5681610a43565b8114610a6157600080fd5b50565b600081359050610a7381610a4d565b92915050565b600060208284031215610a8f57610a8e610a39565b5b6000610a9d84828501610a64565b91505092915050565b610aaf81610a43565b82525050565b7f4e487b7100000000000000000000000000000000000000000000000000000000600052602160045260246000fd5b60028110610af557610af4610ab5565b5b50565b6000819050610b0682610ae4565b919050565b6000610b1682610af8565b9050919050565b610b2681610b0b565b82525050565b600073ffffffffffffffffffffffffffffffffffffffff82169050919050565b6000610b5782610b2c565b9050919050565b610b6781610b4c565b82525050565b600060c082019050610b826000830189610aa6565b8181036020830152610b9481886109d4565b90508181036040830152610ba881876109d4565b9050610bb76060830186610b1d565b610bc46080830185610aa6565b610bd160a0830184610b5e565b979650505050505050565b6000610be782610b2c565b9050919050565b610bf781610bdc565b8114610c0257600080fd5b50565b600081359050610c1481610bee565b92915050565b60008060408385031215610c3157610c30610a39565b5b6000610c3f85828601610a64565b9250506020610c5085828601610c05565b9150509250929050565b6000602082019050610c6f6000830184610aa6565b92915050565b600080fd5b600080fd5b7f4e487b7100000000000000000000000000000000000000000000000000000000600052604160045260246000fd5b610cb7826109c3565b810181811067ffffffffffffffff82111715610cd657610cd5610c7f565b5b80604052505050565b6000610ce9610a2f565b9050610cf58282610cae565b919050565b600067ffffffffffffffff821115610d1557610d14610c7f565b5b610d1e826109c3565b9050602081019050919050565b82818337600083830152505050565b6000610d4d610d4884610cfa565b610cdf565b905082815260208101848484011115610d6957610d68610c7a565b5b610d74848285610d2b565b509392505050565b600082601f830112610d9157610d90610c75565b5b8135610da1848260208601610d3a565b91505092915050565b60028110610db757600080fd5b50565b600081359050610dc981610daa565b92915050565b600080600060608486031215610de857610de7610a39565b5b600084013567ffffffffffffffff811115610e0657610e05610a3e565b5b610e1286828701610d7c565b935050602084013567ffffffffffffffff811115610e3357610e32610a3e565b5b610e3f86828701610d7c565b9250506040610e5086828701610dba565b9150509250925092565b7f4e487b7100000000000000000000000000000000000000000000000000000000600052602260045260246000fd5b60006002820490506001821680610ea157607f821691505b602082108103610eb457610eb3610e5a565b5b50919050565b7f4e487b7100000000000000000000000000000000000000000000000000000000600052601160045260246000fd5b6000610ef482610a43565b9150610eff83610a43565b9250828201905080821115610f1757610f16610eba565b5b92915050565b60008190508160005260206000209050919050565b60006020601f8301049050919050565b600082821b905092915050565b600060088302610f7f7fffffffffffffffffffffffffffffffffffffffffffffffffffffffffffffffff82610f42565b610f898683610f42565b95508019841693508086168417925050509392505050565b6000819050919050565b6000610fc6610fc1610fbc84610a43565b610fa1565b610a43565b9050919050565b6000819050919050565b610fe083610fab565b610ff4610fec82610fcd565b848454610f4f565b825550505050565b600090565b611009610ffc565b611014818484610fd7565b505050565b5b818110156110385761102d600082611001565b60018101905061101a565b5050565b601f82111561107d5761104e81610f1d565b61105784610f32565b81016020851015611066578190505b61107a61107285610f32565b830182611019565b50505b505050565b600082821c905092915050565b60006110a060001984600802611082565b1980831691505092915050565b60006110b9838361108f565b9150826002028217905092915050565b6110d28261097d565b67ffffffffffffffff8111156110eb576110ea610c7f565b5b6110f58254610e89565b61110082828561103c565b600060209050601f8311600181146111335760008415611121578287015190505b61112b85826110ad565b865550611193565b601f19841661114186610f1d565b60005b8281101561116957848901518255600182019150602085019450602081019050611144565b868310156111865784890151611182601f89168261108f565b8355505b6001600288020188555050505b505050505050565b60006111a682610a43565b91507fffffffffffffffffffffffffffffffffffffffffffffffffffffffffffffffff82036111d8576111d7610eba565b5b600182019050919050565b6000819050919050565b60006112086112036111fe846111e3565b610fa1565b610a43565b9050919050565b611218816111ed565b82525050565b600060c0820190506112336000830189610aa6565b818103602083015261124581886109d4565b9050818103604083015261125981876109d4565b90506112686060830186610b1d565b611275608083018561120f565b61128260a0830184610b5e565b97965050505050505056fea2646970667358221220769420819074709f57500a50022b85a5e3f8bc28f792517efcfe2cda0353825f64736f6c63430008130033",
  "immutableReferences": {},
  "source": "// SPDX-License-Identifier: MIT\npragma solidity ^0.8.19;\n\ncontract Engager {\n  string public name;\n  uint public mediaCount = 0;\n  mapping(uint => Media) public media;\n  mapping(uint => mapping(address => uint)) public mediaTips;\n\n  enum MediaType { Image, Video }\n\n  struct Media {\n    uint id;\n    string hash;\n    string description;\n    MediaType mediaType;\n    uint tipAmount;\n    address payable author;\n  }\n\n  event MediaCreated(\n    uint id,\n    string hash,\n    string description,\n    MediaType mediaType,\n    uint tipAmount,\n    address payable author\n  );\n\n  event MediaTipped(\n    uint id,\n    string hash,\n    string description,\n    MediaType mediaType,\n    uint tipAmount,\n    address payable author\n  );\n\n  constructor() {\n    name = \"Engager\";\n  }\n\n  function uploadMedia(string memory _mediaHash, string memory _description, MediaType _mediaType) public {\n    require(bytes(_mediaHash).length > 0);\n    require(bytes(_description).length > 0);\n    require(msg.sender != address(0));\n\n    mediaCount++;\n\n    media[mediaCount] = Media(mediaCount, _mediaHash, _description, _mediaType, 0, payable(msg.sender));\n\n    emit MediaCreated(mediaCount, _mediaHash, _description, _mediaType, 0, payable(msg.sender));\n  }\n\n  function tipMediaOwner(uint _id) public payable {\n    require(_id > 0 && _id <= mediaCount);\n\n    Media memory _media = media[_id];\n    address payable _author = _media.author;\n\n    _author.transfer(msg.value);\n\n    _media.tipAmount += msg.value;\n    mediaTips[_id][msg.sender] += msg.value;\n    media[_id] = _media;\n\n    emit MediaTipped(_id, _media.hash, _media.description, _media.mediaType, _media.tipAmount, _author);\n  }\n}",
  "sourcePath": "D:\\Projects\\art-vault og\\src\\contracts\\Engager.sol",
  "compiler": {
    "name": "solc",
    "version": "0.8.19+commit.7dd6d404.Emscripten.clang"
  },
  "schemaVersion": "3.4.7",
  "updatedAt": "2023-08-20T18:22:16.735Z",
  "networkType": "ethereum",
  "devdoc": {
    "kind": "dev",
    "methods": {},
    "version": 1
  },
  "userdoc": {
    "kind": "user",
    "methods": {},
    "version": 1
  }
}