{
  "contractName": "Engager",
  "abi": [
    {
      "inputs": [],
      "stateMutability": "nonpayable",
      "type": "constructor"
    },
    {
      "anonymous": false,
      "inputs": [
        {
          "indexed": false,
          "internalType": "uint256",
          "name": "id",
          "type": "uint256"
        },
        {
          "indexed": false,
          "internalType": "string",
          "name": "hash",
          "type": "string"
        },
        {
          "indexed": false,
          "internalType": "string",
          "name": "description",
          "type": "string"
        },
        {
          "indexed": false,
          "internalType": "enum Engager.MediaType",
          "name": "mediaType",
          "type": "uint8"
        },
        {
          "indexed": false,
          "internalType": "uint256",
          "name": "tipAmount",
          "type": "uint256"
        },
        {
          "indexed": false,
          "internalType": "address payable",
          "name": "author",
          "type": "address"
        }
      ],
      "name": "MediaCreated",
      "type": "event"
    },
    {
      "anonymous": false,
      "inputs": [
        {
          "indexed": false,
          "internalType": "uint256",
          "name": "id",
          "type": "uint256"
        },
        {
          "indexed": false,
          "internalType": "string",
          "name": "hash",
          "type": "string"
        },
        {
          "indexed": false,
          "internalType": "string",
          "name": "description",
          "type": "string"
        },
        {
          "indexed": false,
          "internalType": "enum Engager.MediaType",
          "name": "mediaType",
          "type": "uint8"
        },
        {
          "indexed": false,
          "internalType": "uint256",
          "name": "tipAmount",
          "type": "uint256"
        },
        {
          "indexed": false,
          "internalType": "address payable",
          "name": "author",
          "type": "address"
        }
      ],
      "name": "MediaTipped",
      "type": "event"
    },
    {
      "inputs": [
        {
          "internalType": "uint256",
          "name": "",
          "type": "uint256"
        }
      ],
      "name": "media",
      "outputs": [
        {
          "internalType": "uint256",
          "name": "id",
          "type": "uint256"
        },
        {
          "internalType": "string",
          "name": "hash",
          "type": "string"
        },
        {
          "internalType": "string",
          "name": "description",
          "type": "string"
        },
        {
          "internalType": "enum Engager.MediaType",
          "name": "mediaType",
          "type": "uint8"
        },
        {
          "internalType": "uint256",
          "name": "tipAmount",
          "type": "uint256"
        },
        {
          "internalType": "address payable",
          "name": "author",
          "type": "address"
        }
      ],
      "stateMutability": "view",
      "type": "function"
    },
    {
      "inputs": [],
      "name": "mediaCount",
      "outputs": [
        {
          "internalType": "uint256",
          "name": "",
          "type": "uint256"
        }
      ],
      "stateMutability": "view",
      "type": "function"
    },
    {
      "inputs": [],
      "name": "name",
      "outputs": [
        {
          "internalType": "string",
          "name": "",
          "type": "string"
        }
      ],
      "stateMutability": "view",
      "type": "function"
    },
    {
      "inputs": [
        {
          "internalType": "string",
          "name": "_mediaHash",
          "type": "string"
        },
        {
          "internalType": "string",
          "name": "_description",
          "type": "string"
        },
        {
          "internalType": "enum Engager.MediaType",
          "name": "_mediaType",
          "type": "uint8"
        }
      ],
      "name": "uploadMedia",
      "outputs": [],
      "stateMutability": "nonpayable",
      "type": "function"
    },
    {
      "inputs": [
        {
          "internalType": "uint256",
          "name": "_id",
          "type": "uint256"
        }
      ],
      "name": "tipMediaOwner",
      "outputs": [],
      "stateMutability": "payable",
      "type": "function"
    }
  ],
  "bytecode": "0x608060405260006001553480156200001657600080fd5b506040518060400160405280600781526020017f456e676167657200000000000000000000000000000000000000000000000000815250600090816200005d9190620002de565b50620003c5565b600081519050919050565b7f4e487b7100000000000000000000000000000000000000000000000000000000600052604160045260246000fd5b7f4e487b7100000000000000000000000000000000000000000000000000000000600052602260045260246000fd5b60006002820490506001821680620000e657607f821691505b602082108103620000fc57620000fb6200009e565b5b50919050565b60008190508160005260206000209050919050565b60006020601f8301049050919050565b600082821b905092915050565b600060088302620001667fffffffffffffffffffffffffffffffffffffffffffffffffffffffffffffffff8262000127565b62000172868362000127565b95508019841693508086168417925050509392505050565b6000819050919050565b6000819050919050565b6000620001bf620001b9620001b3846200018a565b62000194565b6200018a565b9050919050565b6000819050919050565b620001db836200019e565b620001f3620001ea82620001c6565b84845462000134565b825550505050565b600090565b6200020a620001fb565b62000217818484620001d0565b505050565b5b818110156200023f576200023360008262000200565b6001810190506200021d565b5050565b601f8211156200028e57620002588162000102565b620002638462000117565b8101602085101562000273578190505b6200028b620002828562000117565b8301826200021c565b50505b505050565b600082821c905092915050565b6000620002b36000198460080262000293565b1980831691505092915050565b6000620002ce8383620002a0565b9150826002028217905092915050565b620002e98262000064565b67ffffffffffffffff8111156200030557620003046200006f565b5b620003118254620000cd565b6200031e82828562000243565b600060209050601f83116001811462000356576000841562000341578287015190505b6200034d8582620002c0565b865550620003bd565b601f198416620003668662000102565b60005b82811015620003905784890151825560018201915060208501945060208101905062000369565b86831015620003b05784890151620003ac601f891682620002a0565b8355505b6001600288020188555050505b505050505050565b61117180620003d56000396000f3fe60806040526004361061004a5760003560e01c806306fdde031461004f5780632f62aecd1461007a578063bafd2325146100bc578063fba37b63146100e7578063ff1db08114610103575b600080fd5b34801561005b57600080fd5b5061006461012c565b6040516100719190610939565b60405180910390f35b34801561008657600080fd5b506100a1600480360381019061009c91906109a5565b6101ba565b6040516100b396959493929190610a99565b60405180910390f35b3480156100c857600080fd5b506100d1610333565b6040516100de9190610b08565b60405180910390f35b61010160048036038101906100fc91906109a5565b610339565b005b34801561010f57600080fd5b5061012a60048036038101906101259190610c7d565b6106cc565b005b6000805461013990610d37565b80601f016020809104026020016040519081016040528092919081815260200182805461016590610d37565b80156101b25780601f10610187576101008083540402835291602001916101b2565b820191906000526020600020905b81548152906001019060200180831161019557829003601f168201915b505050505081565b60026020528060005260406000206000915090508060000154908060010180546101e390610d37565b80601f016020809104026020016040519081016040528092919081815260200182805461020f90610d37565b801561025c5780601f106102315761010080835404028352916020019161025c565b820191906000526020600020905b81548152906001019060200180831161023f57829003601f168201915b50505050509080600201805461027190610d37565b80601f016020809104026020016040519081016040528092919081815260200182805461029d90610d37565b80156102ea5780601f106102bf576101008083540402835291602001916102ea565b820191906000526020600020905b8154815290600101906020018083116102cd57829003601f168201915b5050505050908060030160009054906101000a900460ff16908060040154908060050160009054906101000a900473ffffffffffffffffffffffffffffffffffffffff16905086565b60015481565b60008111801561034b57506001548111155b61035457600080fd5b6000600260008381526020019081526020016000206040518060c00160405290816000820154815260200160018201805461038e90610d37565b80601f01602080910402602001604051908101604052809291908181526020018280546103ba90610d37565b80156104075780601f106103dc57610100808354040283529160200191610407565b820191906000526020600020905b8154815290600101906020018083116103ea57829003601f168201915b5050505050815260200160028201805461042090610d37565b80601f016020809104026020016040519081016040528092919081815260200182805461044c90610d37565b80156104995780601f1061046e57610100808354040283529160200191610499565b820191906000526020600020905b81548152906001019060200180831161047c57829003601f168201915b505050505081526020016003820160009054906101000a900460ff1660018111156104c7576104c66109e1565b5b60018111156104d9576104d86109e1565b5b8152602001600482015481526020016005820160009054906101000a900473ffffffffffffffffffffffffffffffffffffffff1673ffffffffffffffffffffffffffffffffffffffff1673ffffffffffffffffffffffffffffffffffffffff1681525050905060008160a0015190508073ffffffffffffffffffffffffffffffffffffffff166108fc349081150290604051600060405180830381858888f1935050505015801561058e573d6000803e3d6000fd5b5034826080018181516105a19190610d97565b9150818152505081600260008581526020019081526020016000206000820151816000015560208201518160010190816105db9190610f77565b5060408201518160020190816105f19190610f77565b5060608201518160030160006101000a81548160ff0219169083600181111561061d5761061c6109e1565b5b02179055506080820151816004015560a08201518160050160006101000a81548173ffffffffffffffffffffffffffffffffffffffff021916908373ffffffffffffffffffffffffffffffffffffffff1602179055509050507f1f33c02e7ee293cd40d1d5af05308e5d6afcb33a96bcd261449bff99b6934ed5838360200151846040015185606001518660800151866040516106bf96959493929190610a99565b60405180910390a1505050565b60008351116106da57600080fd5b60008251116106e857600080fd5b600073ffffffffffffffffffffffffffffffffffffffff163373ffffffffffffffffffffffffffffffffffffffff160361072157600080fd5b6001600081548092919061073490611049565b91905055506040518060c00160405280600154815260200184815260200183815260200182600181111561076b5761076a6109e1565b5b8152602001600081526020013373ffffffffffffffffffffffffffffffffffffffff168152506002600060015481526020019081526020016000206000820151816000015560208201518160010190816107c59190610f77565b5060408201518160020190816107db9190610f77565b5060608201518160030160006101000a81548160ff02191690836001811115610807576108066109e1565b5b02179055506080820151816004015560a08201518160050160006101000a81548173ffffffffffffffffffffffffffffffffffffffff021916908373ffffffffffffffffffffffffffffffffffffffff1602179055509050507fa9bdf3cf6d349d2590522ddb42a8c0b79c1d96464037df548d61bae8cb532f0660015484848460003360405161089c969594939291906110cc565b60405180910390a1505050565b600081519050919050565b600082825260208201905092915050565b60005b838110156108e35780820151818401526020810190506108c8565b60008484015250505050565b6000601f19601f8301169050919050565b600061090b826108a9565b61091581856108b4565b93506109258185602086016108c5565b61092e816108ef565b840191505092915050565b600060208201905081810360008301526109538184610900565b905092915050565b6000604051905090565b600080fd5b600080fd5b6000819050919050565b6109828161096f565b811461098d57600080fd5b50565b60008135905061099f81610979565b92915050565b6000602082840312156109bb576109ba610965565b5b60006109c984828501610990565b91505092915050565b6109db8161096f565b82525050565b7f4e487b7100000000000000000000000000000000000000000000000000000000600052602160045260246000fd5b60028110610a2157610a206109e1565b5b50565b6000819050610a3282610a10565b919050565b6000610a4282610a24565b9050919050565b610a5281610a37565b82525050565b600073ffffffffffffffffffffffffffffffffffffffff82169050919050565b6000610a8382610a58565b9050919050565b610a9381610a78565b82525050565b600060c082019050610aae60008301896109d2565b8181036020830152610ac08188610900565b90508181036040830152610ad48187610900565b9050610ae36060830186610a49565b610af060808301856109d2565b610afd60a0830184610a8a565b979650505050505050565b6000602082019050610b1d60008301846109d2565b92915050565b600080fd5b600080fd5b7f4e487b7100000000000000000000000000000000000000000000000000000000600052604160045260246000fd5b610b65826108ef565b810181811067ffffffffffffffff82111715610b8457610b83610b2d565b5b80604052505050565b6000610b9761095b565b9050610ba38282610b5c565b919050565b600067ffffffffffffffff821115610bc357610bc2610b2d565b5b610bcc826108ef565b9050602081019050919050565b82818337600083830152505050565b6000610bfb610bf684610ba8565b610b8d565b905082815260208101848484011115610c1757610c16610b28565b5b610c22848285610bd9565b509392505050565b600082601f830112610c3f57610c3e610b23565b5b8135610c4f848260208601610be8565b91505092915050565b60028110610c6557600080fd5b50565b600081359050610c7781610c58565b92915050565b600080600060608486031215610c9657610c95610965565b5b600084013567ffffffffffffffff811115610cb457610cb361096a565b5b610cc086828701610c2a565b935050602084013567ffffffffffffffff811115610ce157610ce061096a565b5b610ced86828701610c2a565b9250506040610cfe86828701610c68565b9150509250925092565b7f4e487b7100000000000000000000000000000000000000000000000000000000600052602260045260246000fd5b60006002820490506001821680610d4f57607f821691505b602082108103610d6257610d61610d08565b5b50919050565b7f4e487b7100000000000000000000000000000000000000000000000000000000600052601160045260246000fd5b6000610da28261096f565b9150610dad8361096f565b9250828201905080821115610dc557610dc4610d68565b5b92915050565b60008190508160005260206000209050919050565b60006020601f8301049050919050565b600082821b905092915050565b600060088302610e2d7fffffffffffffffffffffffffffffffffffffffffffffffffffffffffffffffff82610df0565b610e378683610df0565b95508019841693508086168417925050509392505050565b6000819050919050565b6000610e74610e6f610e6a8461096f565b610e4f565b61096f565b9050919050565b6000819050919050565b610e8e83610e59565b610ea2610e9a82610e7b565b848454610dfd565b825550505050565b600090565b610eb7610eaa565b610ec2818484610e85565b505050565b5b81811015610ee657610edb600082610eaf565b600181019050610ec8565b5050565b601f821115610f2b57610efc81610dcb565b610f0584610de0565b81016020851015610f14578190505b610f28610f2085610de0565b830182610ec7565b50505b505050565b600082821c905092915050565b6000610f4e60001984600802610f30565b1980831691505092915050565b6000610f678383610f3d565b9150826002028217905092915050565b610f80826108a9565b67ffffffffffffffff811115610f9957610f98610b2d565b5b610fa38254610d37565b610fae828285610eea565b600060209050601f831160018114610fe15760008415610fcf578287015190505b610fd98582610f5b565b865550611041565b601f198416610fef86610dcb565b60005b8281101561101757848901518255600182019150602085019450602081019050610ff2565b868310156110345784890151611030601f891682610f3d565b8355505b6001600288020188555050505b505050505050565b60006110548261096f565b91507fffffffffffffffffffffffffffffffffffffffffffffffffffffffffffffffff820361108657611085610d68565b5b600182019050919050565b6000819050919050565b60006110b66110b16110ac84611091565b610e4f565b61096f565b9050919050565b6110c68161109b565b82525050565b600060c0820190506110e160008301896109d2565b81810360208301526110f38188610900565b905081810360408301526111078187610900565b90506111166060830186610a49565b61112360808301856110bd565b61113060a0830184610a8a565b97965050505050505056fea2646970667358221220c5b70eeebb81bd2c0ab62b2c0737d70e39e9186c5f9c203d3f33ad6dcd36939064736f6c63430008130033",
  "immutableReferences": {},
  "source": "// SPDX-License-Identifier: MIT\npragma solidity ^0.8.19;\n\ncontract Engager {\n  string public name;\n  uint public mediaCount = 0;\n  mapping(uint => Media) public media;\n\n  enum MediaType { Image, Video }\n\n  struct Media {\n    uint id;\n    string hash;\n    string description;\n    MediaType mediaType;\n    uint tipAmount;\n    address payable author;\n  }\n\n  event MediaCreated(\n    uint id,\n    string hash,\n    string description,\n    MediaType mediaType,\n    uint tipAmount,\n    address payable author\n  );\n\n  event MediaTipped(\n    uint id,\n    string hash,\n    string description,\n    MediaType mediaType,\n    uint tipAmount,\n    address payable author\n  );\n\n  constructor() {\n    name = \"Engager\";\n  }\n\n  function uploadMedia(string memory _mediaHash, string memory _description, MediaType _mediaType) public {\n    require(bytes(_mediaHash).length > 0);\n    require(bytes(_description).length > 0);\n    require(msg.sender != address(0));\n\n    mediaCount++;\n\n    media[mediaCount] = Media(mediaCount, _mediaHash, _description, _mediaType, 0, payable(msg.sender));\n\n    emit MediaCreated(mediaCount, _mediaHash, _description, _mediaType, 0, payable(msg.sender));\n  }\n\n  function tipMediaOwner(uint _id) public payable {\n    require(_id > 0 && _id <= mediaCount);\n\n    Media memory _media = media[_id];\n    address payable _author = _media.author;\n\n    _author.transfer(msg.value);\n\n    _media.tipAmount += msg.value;\n    media[_id] = _media;\n\n    emit MediaTipped(_id, _media.hash, _media.description, _media.mediaType, _media.tipAmount, _author);\n  }\n}",
  "sourcePath": "D:\\Projects\\art-vault\\src\\contracts\\Engager.sol",
  "compiler": {
    "name": "solc",
    "version": "0.8.19+commit.7dd6d404.Emscripten.clang"
  },
  "schemaVersion": "3.4.7",
  "updatedAt": "2023-08-14T20:30:19.127Z",
  "devdoc": {
    "kind": "dev",
    "methods": {},
    "version": 1
  },
  "userdoc": {
    "kind": "user",
    "methods": {},
    "version": 1
  }
}