{
  "contractName": "GenSea",
  "abi": [
    {
      "inputs": [],
      "stateMutability": "nonpayable",
      "type": "constructor"
    },
    {
      "anonymous": false,
      "inputs": [
        {
          "indexed": false,
          "internalType": "uint256",
          "name": "id",
          "type": "uint256"
        },
        {
          "indexed": false,
          "internalType": "string",
          "name": "hash",
          "type": "string"
        },
        {
          "indexed": false,
          "internalType": "string",
          "name": "description",
          "type": "string"
        },
        {
          "indexed": false,
          "internalType": "enum GenSea.MediaType",
          "name": "mediaType",
          "type": "uint8"
        },
        {
          "indexed": false,
          "internalType": "uint256",
          "name": "tipAmount",
          "type": "uint256"
        },
        {
          "indexed": false,
          "internalType": "address payable",
          "name": "author",
          "type": "address"
        }
      ],
      "name": "MediaCreated",
      "type": "event"
    },
    {
      "anonymous": false,
      "inputs": [
        {
          "indexed": false,
          "internalType": "uint256",
          "name": "id",
          "type": "uint256"
        },
        {
          "indexed": false,
          "internalType": "string",
          "name": "hash",
          "type": "string"
        },
        {
          "indexed": false,
          "internalType": "string",
          "name": "description",
          "type": "string"
        },
        {
          "indexed": false,
          "internalType": "enum GenSea.MediaType",
          "name": "mediaType",
          "type": "uint8"
        },
        {
          "indexed": false,
          "internalType": "uint256",
          "name": "tipAmount",
          "type": "uint256"
        },
        {
          "indexed": false,
          "internalType": "address payable",
          "name": "author",
          "type": "address"
        }
      ],
      "name": "MediaTipped",
      "type": "event"
    },
    {
      "anonymous": false,
      "inputs": [
        {
          "indexed": true,
          "internalType": "address",
          "name": "from",
          "type": "address"
        },
        {
          "indexed": true,
          "internalType": "address",
          "name": "to",
          "type": "address"
        },
        {
          "indexed": false,
          "internalType": "string",
          "name": "timestamp",
          "type": "string"
        }
      ],
      "name": "MessageSent",
      "type": "event"
    },
    {
      "anonymous": false,
      "inputs": [
        {
          "indexed": false,
          "internalType": "uint256",
          "name": "id",
          "type": "uint256"
        },
        {
          "indexed": false,
          "internalType": "address",
          "name": "walletAddress",
          "type": "address"
        },
        {
          "indexed": false,
          "internalType": "string",
          "name": "username",
          "type": "string"
        }
      ],
      "name": "UserAdded",
      "type": "event"
    },
    {
      "inputs": [
        {
          "internalType": "uint256",
          "name": "",
          "type": "uint256"
        }
      ],
      "name": "media",
      "outputs": [
        {
          "internalType": "uint256",
          "name": "id",
          "type": "uint256"
        },
        {
          "internalType": "string",
          "name": "hash",
          "type": "string"
        },
        {
          "internalType": "string",
          "name": "description",
          "type": "string"
        },
        {
          "internalType": "enum GenSea.MediaType",
          "name": "mediaType",
          "type": "uint8"
        },
        {
          "internalType": "uint256",
          "name": "tipAmount",
          "type": "uint256"
        },
        {
          "internalType": "address payable",
          "name": "author",
          "type": "address"
        },
        {
          "internalType": "string",
          "name": "username",
          "type": "string"
        }
      ],
      "stateMutability": "view",
      "type": "function"
    },
    {
      "inputs": [],
      "name": "mediaCount",
      "outputs": [
        {
          "internalType": "uint256",
          "name": "",
          "type": "uint256"
        }
      ],
      "stateMutability": "view",
      "type": "function"
    },
    {
      "inputs": [
        {
          "internalType": "uint256",
          "name": "",
          "type": "uint256"
        },
        {
          "internalType": "address",
          "name": "",
          "type": "address"
        }
      ],
      "name": "mediaTips",
      "outputs": [
        {
          "internalType": "uint256",
          "name": "",
          "type": "uint256"
        }
      ],
      "stateMutability": "view",
      "type": "function"
    },
    {
      "inputs": [],
      "name": "messageCount",
      "outputs": [
        {
          "internalType": "uint256",
          "name": "",
          "type": "uint256"
        }
      ],
      "stateMutability": "view",
      "type": "function"
    },
    {
      "inputs": [
        {
          "internalType": "uint256",
          "name": "",
          "type": "uint256"
        }
      ],
      "name": "messages",
      "outputs": [
        {
          "internalType": "uint256",
          "name": "id",
          "type": "uint256"
        },
        {
          "internalType": "address",
          "name": "from",
          "type": "address"
        },
        {
          "internalType": "address",
          "name": "to",
          "type": "address"
        },
        {
          "internalType": "string",
          "name": "encrMsgTo",
          "type": "string"
        },
        {
          "internalType": "string",
          "name": "encrMsgFrom",
          "type": "string"
        },
        {
          "internalType": "string",
          "name": "timestamp",
          "type": "string"
        }
      ],
      "stateMutability": "view",
      "type": "function"
    },
    {
      "inputs": [],
      "name": "name",
      "outputs": [
        {
          "internalType": "string",
          "name": "",
          "type": "string"
        }
      ],
      "stateMutability": "view",
      "type": "function"
    },
    {
      "inputs": [],
      "name": "userCount",
      "outputs": [
        {
          "internalType": "uint256",
          "name": "",
          "type": "uint256"
        }
      ],
      "stateMutability": "view",
      "type": "function"
    },
    {
      "inputs": [
        {
          "internalType": "uint256",
          "name": "",
          "type": "uint256"
        }
      ],
      "name": "users",
      "outputs": [
        {
          "internalType": "uint256",
          "name": "id",
          "type": "uint256"
        },
        {
          "internalType": "address",
          "name": "walletAddress",
          "type": "address"
        },
        {
          "internalType": "string",
          "name": "username",
          "type": "string"
        },
        {
          "internalType": "string",
          "name": "publicKey",
          "type": "string"
        }
      ],
      "stateMutability": "view",
      "type": "function"
    },
    {
      "inputs": [
        {
          "internalType": "string",
          "name": "username",
          "type": "string"
        },
        {
          "internalType": "string",
          "name": "publickey",
          "type": "string"
        }
      ],
      "name": "addUser",
      "outputs": [],
      "stateMutability": "nonpayable",
      "type": "function"
    },
    {
      "inputs": [
        {
          "internalType": "string",
          "name": "username",
          "type": "string"
        },
        {
          "internalType": "string",
          "name": "_mediaHash",
          "type": "string"
        },
        {
          "internalType": "string",
          "name": "_description",
          "type": "string"
        },
        {
          "internalType": "enum GenSea.MediaType",
          "name": "_mediaType",
          "type": "uint8"
        }
      ],
      "name": "uploadMedia",
      "outputs": [],
      "stateMutability": "nonpayable",
      "type": "function"
    },
    {
      "inputs": [
        {
          "internalType": "uint256",
          "name": "_id",
          "type": "uint256"
        }
      ],
      "name": "tipMediaOwner",
      "outputs": [],
      "stateMutability": "payable",
      "type": "function"
    },
    {
      "inputs": [
        {
          "internalType": "address",
          "name": "to",
          "type": "address"
        },
        {
          "internalType": "string",
          "name": "encrMsgTo",
          "type": "string"
        },
        {
          "internalType": "string",
          "name": "encrMsgFrom",
          "type": "string"
        },
        {
          "internalType": "string",
          "name": "time",
          "type": "string"
        }
      ],
      "name": "sendMessage",
      "outputs": [],
      "stateMutability": "nonpayable",
      "type": "function"
    }
  ],
  "bytecode": "0x60806040526000600155600060025560006003553480156200002057600080fd5b506040518060400160405280600681526020017f47656e536561000000000000000000000000000000000000000000000000000081525060009081620000679190620002e8565b50620003cf565b600081519050919050565b7f4e487b7100000000000000000000000000000000000000000000000000000000600052604160045260246000fd5b7f4e487b7100000000000000000000000000000000000000000000000000000000600052602260045260246000fd5b60006002820490506001821680620000f057607f821691505b602082108103620001065762000105620000a8565b5b50919050565b60008190508160005260206000209050919050565b60006020601f8301049050919050565b600082821b905092915050565b600060088302620001707fffffffffffffffffffffffffffffffffffffffffffffffffffffffffffffffff8262000131565b6200017c868362000131565b95508019841693508086168417925050509392505050565b6000819050919050565b6000819050919050565b6000620001c9620001c3620001bd8462000194565b6200019e565b62000194565b9050919050565b6000819050919050565b620001e583620001a8565b620001fd620001f482620001d0565b8484546200013e565b825550505050565b600090565b6200021462000205565b62000221818484620001da565b505050565b5b8181101562000249576200023d6000826200020a565b60018101905062000227565b5050565b601f821115620002985762000262816200010c565b6200026d8462000121565b810160208510156200027d578190505b620002956200028c8562000121565b83018262000226565b50505b505050565b600082821c905092915050565b6000620002bd600019846008026200029d565b1980831691505092915050565b6000620002d88383620002aa565b9150826002028217905092915050565b620002f3826200006e565b67ffffffffffffffff8111156200030f576200030e62000079565b5b6200031b8254620000d7565b620003288282856200024d565b600060209050601f8311600181146200036057600084156200034b578287015190505b620003578582620002ca565b865550620003c7565b601f19841662000370866200010c565b60005b828110156200039a5784890151825560018201915060208501945060208101905062000373565b86831015620003ba5784890151620003b6601f891682620002aa565b8355505b6001600288020188555050505b505050505050565b61207c80620003df6000396000f3fe6080604052600436106100a75760003560e01c8063365b98b211610064578063365b98b2146101d95780633dbcc8d1146102195780639c339fb314610244578063bafd232514610281578063cb0d4817146102ac578063fba37b63146102d5576100a7565b806301d4a82f146100ac57806306fdde03146100d557806307973ccf14610100578063079eaf341461012b5780630d80fefd146101545780632f62aecd14610196575b600080fd5b3480156100b857600080fd5b506100d360048036038101906100ce91906115f1565b6102f1565b005b3480156100e157600080fd5b506100ea61054f565b6040516100f7919061172b565b60405180910390f35b34801561010c57600080fd5b506101156105dd565b6040516101229190611766565b60405180910390f35b34801561013757600080fd5b50610152600480360381019061014d9190611781565b6105e3565b005b34801561016057600080fd5b5061017b60048036038101906101769190611825565b6107f1565b60405161018d96959493929190611861565b60405180910390f35b3480156101a257600080fd5b506101bd60048036038101906101b89190611825565b610a05565b6040516101d0979695949392919061196f565b60405180910390f35b3480156101e557600080fd5b5061020060048036038101906101fb9190611825565b610c0c565b60405161021094939291906119f3565b60405180910390f35b34801561022557600080fd5b5061022e610d6c565b60405161023b9190611766565b60405180910390f35b34801561025057600080fd5b5061026b60048036038101906102669190611a46565b610d72565b6040516102789190611766565b60405180910390f35b34801561028d57600080fd5b50610296610d97565b6040516102a39190611766565b60405180910390f35b3480156102b857600080fd5b506102d360048036038101906102ce9190611aab565b610d9d565b005b6102ef60048036038101906102ea9190611825565b610f97565b005b60008351116102ff57600080fd5b600082511161030d57600080fd5b600073ffffffffffffffffffffffffffffffffffffffff163373ffffffffffffffffffffffffffffffffffffffff160361034657600080fd5b600073ffffffffffffffffffffffffffffffffffffffff168473ffffffffffffffffffffffffffffffffffffffff160361037f57600080fd5b6003600081548092919061039290611b95565b91905055506040518060c0016040528060035481526020013373ffffffffffffffffffffffffffffffffffffffff1681526020018573ffffffffffffffffffffffffffffffffffffffff168152602001848152602001838152602001828152506005600060035481526020019081526020016000206000820151816000015560208201518160010160006101000a81548173ffffffffffffffffffffffffffffffffffffffff021916908373ffffffffffffffffffffffffffffffffffffffff16021790555060408201518160020160006101000a81548173ffffffffffffffffffffffffffffffffffffffff021916908373ffffffffffffffffffffffffffffffffffffffff16021790555060608201518160030190816104b49190611de9565b5060808201518160040190816104ca9190611de9565b5060a08201518160050190816104e09190611de9565b509050508373ffffffffffffffffffffffffffffffffffffffff163373ffffffffffffffffffffffffffffffffffffffff167fe2cf7446a11cbcd14cd99ea3a1bb77fb7653a64f4064d660140b5100d001e13c83604051610541919061172b565b60405180910390a350505050565b6000805461055c90611c0c565b80601f016020809104026020016040519081016040528092919081815260200182805461058890611c0c565b80156105d55780601f106105aa576101008083540402835291602001916105d5565b820191906000526020600020905b8154815290600101906020018083116105b857829003601f168201915b505050505081565b60015481565b600073ffffffffffffffffffffffffffffffffffffffff163373ffffffffffffffffffffffffffffffffffffffff160361061c57600080fd5b600082511161062a57600080fd5b600081511161063857600080fd5b6000600190505b60015481116106c9573373ffffffffffffffffffffffffffffffffffffffff166007600083815260200190815260200160002060010160009054906101000a900473ffffffffffffffffffffffffffffffffffffffff1673ffffffffffffffffffffffffffffffffffffffff16036106b657600080fd5b80806106c190611b95565b91505061063f565b50600160008154809291906106dd90611b95565b9190505550604051806080016040528060015481526020013373ffffffffffffffffffffffffffffffffffffffff168152602001838152602001828152506007600060015481526020019081526020016000206000820151816000015560208201518160010160006101000a81548173ffffffffffffffffffffffffffffffffffffffff021916908373ffffffffffffffffffffffffffffffffffffffff16021790555060408201518160020190816107969190611de9565b5060608201518160030190816107ac9190611de9565b509050507f143c3536e28d56a1fac3d14af6dfd6931ab7363840dd200d22b6b16b2664655960015433846040516107e593929190611ebb565b60405180910390a15050565b60056020528060005260406000206000915090508060000154908060010160009054906101000a900473ffffffffffffffffffffffffffffffffffffffff16908060020160009054906101000a900473ffffffffffffffffffffffffffffffffffffffff169080600301805461086690611c0c565b80601f016020809104026020016040519081016040528092919081815260200182805461089290611c0c565b80156108df5780601f106108b4576101008083540402835291602001916108df565b820191906000526020600020905b8154815290600101906020018083116108c257829003601f168201915b5050505050908060040180546108f490611c0c565b80601f016020809104026020016040519081016040528092919081815260200182805461092090611c0c565b801561096d5780601f106109425761010080835404028352916020019161096d565b820191906000526020600020905b81548152906001019060200180831161095057829003601f168201915b50505050509080600501805461098290611c0c565b80601f01602080910402602001604051908101604052809291908181526020018280546109ae90611c0c565b80156109fb5780601f106109d0576101008083540402835291602001916109fb565b820191906000526020600020905b8154815290600101906020018083116109de57829003601f168201915b5050505050905086565b6004602052806000526040600020600091509050806000015490806001018054610a2e90611c0c565b80601f0160208091040260200160405190810160405280929190818152602001828054610a5a90611c0c565b8015610aa75780601f10610a7c57610100808354040283529160200191610aa7565b820191906000526020600020905b815481529060010190602001808311610a8a57829003601f168201915b505050505090806002018054610abc90611c0c565b80601f0160208091040260200160405190810160405280929190818152602001828054610ae890611c0c565b8015610b355780601f10610b0a57610100808354040283529160200191610b35565b820191906000526020600020905b815481529060010190602001808311610b1857829003601f168201915b5050505050908060030160009054906101000a900460ff16908060040154908060050160009054906101000a900473ffffffffffffffffffffffffffffffffffffffff1690806006018054610b8990611c0c565b80601f0160208091040260200160405190810160405280929190818152602001828054610bb590611c0c565b8015610c025780601f10610bd757610100808354040283529160200191610c02565b820191906000526020600020905b815481529060010190602001808311610be557829003601f168201915b5050505050905087565b60076020528060005260406000206000915090508060000154908060010160009054906101000a900473ffffffffffffffffffffffffffffffffffffffff1690806002018054610c5b90611c0c565b80601f0160208091040260200160405190810160405280929190818152602001828054610c8790611c0c565b8015610cd45780601f10610ca957610100808354040283529160200191610cd4565b820191906000526020600020905b815481529060010190602001808311610cb757829003601f168201915b505050505090806003018054610ce990611c0c565b80601f0160208091040260200160405190810160405280929190818152602001828054610d1590611c0c565b8015610d625780601f10610d3757610100808354040283529160200191610d62565b820191906000526020600020905b815481529060010190602001808311610d4557829003601f168201915b5050505050905084565b60035481565b6006602052816000526040600020602052806000526040600020600091509150505481565b60025481565b6000835111610dab57600080fd5b6000825111610db957600080fd5b600073ffffffffffffffffffffffffffffffffffffffff163373ffffffffffffffffffffffffffffffffffffffff1603610df257600080fd5b60026000815480929190610e0590611b95565b91905055506040518060e001604052806002548152602001848152602001838152602001826001811115610e3c57610e3b6118d7565b5b8152602001600081526020013373ffffffffffffffffffffffffffffffffffffffff16815260200185815250600460006002548152602001908152602001600020600082015181600001556020820151816001019081610e9c9190611de9565b506040820151816002019081610eb29190611de9565b5060608201518160030160006101000a81548160ff02191690836001811115610ede57610edd6118d7565b5b02179055506080820151816004015560a08201518160050160006101000a81548173ffffffffffffffffffffffffffffffffffffffff021916908373ffffffffffffffffffffffffffffffffffffffff16021790555060c0820151816006019081610f499190611de9565b509050507fa9bdf3cf6d349d2590522ddb42a8c0b79c1d96464037df548d61bae8cb532f06600254848484600033604051610f8996959493929190611f34565b60405180910390a150505050565b600081118015610fa957506002548111155b610fb257600080fd5b6000600460008381526020019081526020016000206040518060e001604052908160008201548152602001600182018054610fec90611c0c565b80601f016020809104026020016040519081016040528092919081815260200182805461101890611c0c565b80156110655780601f1061103a57610100808354040283529160200191611065565b820191906000526020600020905b81548152906001019060200180831161104857829003601f168201915b5050505050815260200160028201805461107e90611c0c565b80601f01602080910402602001604051908101604052809291908181526020018280546110aa90611c0c565b80156110f75780601f106110cc576101008083540402835291602001916110f7565b820191906000526020600020905b8154815290600101906020018083116110da57829003601f168201915b505050505081526020016003820160009054906101000a900460ff166001811115611125576111246118d7565b5b6001811115611137576111366118d7565b5b8152602001600482015481526020016005820160009054906101000a900473ffffffffffffffffffffffffffffffffffffffff1673ffffffffffffffffffffffffffffffffffffffff1673ffffffffffffffffffffffffffffffffffffffff1681526020016006820180546111ab90611c0c565b80601f01602080910402602001604051908101604052809291908181526020018280546111d790611c0c565b80156112245780601f106111f957610100808354040283529160200191611224565b820191906000526020600020905b81548152906001019060200180831161120757829003601f168201915b505050505081525050905060008160a0015190508073ffffffffffffffffffffffffffffffffffffffff166108fc349081150290604051600060405180830381858888f1935050505015801561127e573d6000803e3d6000fd5b5034826080018181516112919190611fa3565b91508181525050346006600085815260200190815260200160002060003373ffffffffffffffffffffffffffffffffffffffff1673ffffffffffffffffffffffffffffffffffffffff16815260200190815260200160002060008282546112f89190611fa3565b9250508190555081600460008581526020019081526020016000206000820151816000015560208201518160010190816113329190611de9565b5060408201518160020190816113489190611de9565b5060608201518160030160006101000a81548160ff02191690836001811115611374576113736118d7565b5b02179055506080820151816004015560a08201518160050160006101000a81548173ffffffffffffffffffffffffffffffffffffffff021916908373ffffffffffffffffffffffffffffffffffffffff16021790555060c08201518160060190816113df9190611de9565b509050507f1f33c02e7ee293cd40d1d5af05308e5d6afcb33a96bcd261449bff99b6934ed58383602001518460400151856060015186608001518660405161142c96959493929190611fd7565b60405180910390a1505050565b6000604051905090565b600080fd5b600080fd5b600073ffffffffffffffffffffffffffffffffffffffff82169050919050565b60006114788261144d565b9050919050565b6114888161146d565b811461149357600080fd5b50565b6000813590506114a58161147f565b92915050565b600080fd5b600080fd5b6000601f19601f8301169050919050565b7f4e487b7100000000000000000000000000000000000000000000000000000000600052604160045260246000fd5b6114fe826114b5565b810181811067ffffffffffffffff8211171561151d5761151c6114c6565b5b80604052505050565b6000611530611439565b905061153c82826114f5565b919050565b600067ffffffffffffffff82111561155c5761155b6114c6565b5b611565826114b5565b9050602081019050919050565b82818337600083830152505050565b600061159461158f84611541565b611526565b9050828152602081018484840111156115b0576115af6114b0565b5b6115bb848285611572565b509392505050565b600082601f8301126115d8576115d76114ab565b5b81356115e8848260208601611581565b91505092915050565b6000806000806080858703121561160b5761160a611443565b5b600061161987828801611496565b945050602085013567ffffffffffffffff81111561163a57611639611448565b5b611646878288016115c3565b935050604085013567ffffffffffffffff81111561166757611666611448565b5b611673878288016115c3565b925050606085013567ffffffffffffffff81111561169457611693611448565b5b6116a0878288016115c3565b91505092959194509250565b600081519050919050565b600082825260208201905092915050565b60005b838110156116e65780820151818401526020810190506116cb565b60008484015250505050565b60006116fd826116ac565b61170781856116b7565b93506117178185602086016116c8565b611720816114b5565b840191505092915050565b6000602082019050818103600083015261174581846116f2565b905092915050565b6000819050919050565b6117608161174d565b82525050565b600060208201905061177b6000830184611757565b92915050565b6000806040838503121561179857611797611443565b5b600083013567ffffffffffffffff8111156117b6576117b5611448565b5b6117c2858286016115c3565b925050602083013567ffffffffffffffff8111156117e3576117e2611448565b5b6117ef858286016115c3565b9150509250929050565b6118028161174d565b811461180d57600080fd5b50565b60008135905061181f816117f9565b92915050565b60006020828403121561183b5761183a611443565b5b600061184984828501611810565b91505092915050565b61185b8161146d565b82525050565b600060c0820190506118766000830189611757565b6118836020830188611852565b6118906040830187611852565b81810360608301526118a281866116f2565b905081810360808301526118b681856116f2565b905081810360a08301526118ca81846116f2565b9050979650505050505050565b7f4e487b7100000000000000000000000000000000000000000000000000000000600052602160045260246000fd5b60028110611917576119166118d7565b5b50565b600081905061192882611906565b919050565b60006119388261191a565b9050919050565b6119488161192d565b82525050565b60006119598261144d565b9050919050565b6119698161194e565b82525050565b600060e082019050611984600083018a611757565b818103602083015261199681896116f2565b905081810360408301526119aa81886116f2565b90506119b9606083018761193f565b6119c66080830186611757565b6119d360a0830185611960565b81810360c08301526119e581846116f2565b905098975050505050505050565b6000608082019050611a086000830187611757565b611a156020830186611852565b8181036040830152611a2781856116f2565b90508181036060830152611a3b81846116f2565b905095945050505050565b60008060408385031215611a5d57611a5c611443565b5b6000611a6b85828601611810565b9250506020611a7c85828601611496565b9150509250929050565b60028110611a9357600080fd5b50565b600081359050611aa581611a86565b92915050565b60008060008060808587031215611ac557611ac4611443565b5b600085013567ffffffffffffffff811115611ae357611ae2611448565b5b611aef878288016115c3565b945050602085013567ffffffffffffffff811115611b1057611b0f611448565b5b611b1c878288016115c3565b935050604085013567ffffffffffffffff811115611b3d57611b3c611448565b5b611b49878288016115c3565b9250506060611b5a87828801611a96565b91505092959194509250565b7f4e487b7100000000000000000000000000000000000000000000000000000000600052601160045260246000fd5b6000611ba08261174d565b91507fffffffffffffffffffffffffffffffffffffffffffffffffffffffffffffffff8203611bd257611bd1611b66565b5b600182019050919050565b7f4e487b7100000000000000000000000000000000000000000000000000000000600052602260045260246000fd5b60006002820490506001821680611c2457607f821691505b602082108103611c3757611c36611bdd565b5b50919050565b60008190508160005260206000209050919050565b60006020601f8301049050919050565b600082821b905092915050565b600060088302611c9f7fffffffffffffffffffffffffffffffffffffffffffffffffffffffffffffffff82611c62565b611ca98683611c62565b95508019841693508086168417925050509392505050565b6000819050919050565b6000611ce6611ce1611cdc8461174d565b611cc1565b61174d565b9050919050565b6000819050919050565b611d0083611ccb565b611d14611d0c82611ced565b848454611c6f565b825550505050565b600090565b611d29611d1c565b611d34818484611cf7565b505050565b5b81811015611d5857611d4d600082611d21565b600181019050611d3a565b5050565b601f821115611d9d57611d6e81611c3d565b611d7784611c52565b81016020851015611d86578190505b611d9a611d9285611c52565b830182611d39565b50505b505050565b600082821c905092915050565b6000611dc060001984600802611da2565b1980831691505092915050565b6000611dd98383611daf565b9150826002028217905092915050565b611df2826116ac565b67ffffffffffffffff811115611e0b57611e0a6114c6565b5b611e158254611c0c565b611e20828285611d5c565b600060209050601f831160018114611e535760008415611e41578287015190505b611e4b8582611dcd565b865550611eb3565b601f198416611e6186611c3d565b60005b82811015611e8957848901518255600182019150602085019450602081019050611e64565b86831015611ea65784890151611ea2601f891682611daf565b8355505b6001600288020188555050505b505050505050565b6000606082019050611ed06000830186611757565b611edd6020830185611852565b8181036040830152611eef81846116f2565b9050949350505050565b6000819050919050565b6000611f1e611f19611f1484611ef9565b611cc1565b61174d565b9050919050565b611f2e81611f03565b82525050565b600060c082019050611f496000830189611757565b8181036020830152611f5b81886116f2565b90508181036040830152611f6f81876116f2565b9050611f7e606083018661193f565b611f8b6080830185611f25565b611f9860a0830184611960565b979650505050505050565b6000611fae8261174d565b9150611fb98361174d565b9250828201905080821115611fd157611fd0611b66565b5b92915050565b600060c082019050611fec6000830189611757565b8181036020830152611ffe81886116f2565b9050818103604083015261201281876116f2565b9050612021606083018661193f565b61202e6080830185611757565b61203b60a0830184611960565b97965050505050505056fea2646970667358221220d293994206f3b45bdbc61bf738f91c7be37e0991f65a01a6373385cc3f447efe64736f6c63430008130033",
  "immutableReferences": {},
  "source": "// SPDX-License-Identifier: MIT\r\npragma solidity ^0.8.19;\r\n\r\ncontract GenSea {\r\n  string public name;\r\n  uint public userCount = 0;\r\n  uint public mediaCount = 0;\r\n  uint public messageCount = 0;\r\n  mapping(uint => Media) public media;\r\n  mapping(uint => Message) public messages;\r\n  mapping(uint => mapping(address => uint)) public mediaTips;\r\n  mapping(uint => User) public users;\r\n\r\n  enum MediaType { Image, Video }\r\n\r\n  struct User {\r\n    uint id;\r\n    address walletAddress;\r\n    string username;\r\n    string publicKey;\r\n  }\r\n\r\n  struct Message {\r\n    uint id;\r\n    address from;\r\n    address to;\r\n    string encrMsgTo;\r\n    string encrMsgFrom;\r\n    string timestamp;\r\n  }\r\n\r\n  struct Media {\r\n    uint id;\r\n    string hash;\r\n    string description;\r\n    MediaType mediaType;\r\n    uint tipAmount;\r\n    address payable author;\r\n    string username;\r\n  }\r\n\r\n  event MediaCreated(\r\n    uint id,\r\n    string hash,\r\n    string description,\r\n    MediaType mediaType,\r\n    uint tipAmount,\r\n    address payable author\r\n  );\r\n\r\n  event MediaTipped(\r\n    uint id,\r\n    string hash,\r\n    string description,\r\n    MediaType mediaType,\r\n    uint tipAmount,\r\n    address payable author\r\n  );\r\n\r\n  event MessageSent(\r\n    address indexed from,\r\n    address indexed to,\r\n    string timestamp\r\n  );\r\n\r\n  event UserAdded(\r\n    uint id,\r\n    address walletAddress,\r\n    string username\r\n  );\r\n\r\n  constructor() {\r\n    name = \"GenSea\";\r\n  }\r\n\r\n  function addUser(string memory username, string memory publickey) public {\r\n    require(msg.sender != address(0));\r\n    require(bytes(username).length > 0);\r\n    require(bytes(publickey).length > 0);\r\n\r\n    for (uint256 i = 1; i <= userCount; i++) {\r\n      require(users[i].walletAddress != msg.sender);\r\n    }\r\n\r\n    userCount++;\r\n    users[userCount] = User(userCount, msg.sender, username, publickey);\r\n    \r\n    emit UserAdded(userCount, msg.sender, username);\r\n  }\r\n\r\n  function uploadMedia(string memory username, string memory _mediaHash, string memory _description, MediaType _mediaType) public {\r\n    require(bytes(_mediaHash).length > 0);\r\n    require(bytes(_description).length > 0);\r\n    require(msg.sender != address(0));\r\n\r\n    mediaCount++;\r\n\r\n    media[mediaCount] = Media(mediaCount, _mediaHash, _description, _mediaType, 0, payable(msg.sender), username);\r\n\r\n    emit MediaCreated(mediaCount, _mediaHash, _description, _mediaType, 0, payable(msg.sender));\r\n  }\r\n\r\n  function tipMediaOwner(uint _id) public payable {\r\n    require(_id > 0 && _id <= mediaCount);\r\n\r\n    Media memory _media = media[_id];\r\n    address payable _author = _media.author;\r\n\r\n    _author.transfer(msg.value);\r\n\r\n    _media.tipAmount += msg.value;\r\n    mediaTips[_id][msg.sender] += msg.value;\r\n    media[_id] = _media;\r\n\r\n    emit MediaTipped(_id, _media.hash, _media.description, _media.mediaType, _media.tipAmount, _author);\r\n  }\r\n\r\n  function sendMessage(address to, string memory encrMsgTo, string memory encrMsgFrom, string memory time) public {\r\n    require(bytes(encrMsgTo).length > 0);\r\n    require(bytes(encrMsgFrom).length > 0);\r\n    require(msg.sender != address(0));\r\n    require(to != address(0));\r\n\r\n    messageCount++; \r\n    messages[messageCount] = Message(messageCount, msg.sender, to, encrMsgTo, encrMsgFrom, time);\r\n    \r\n    emit MessageSent(msg.sender, to, time);\r\n  }\r\n}",
  "sourcePath": "D:\\Capstone\\Blockchain social media\\src\\contracts\\GenSea.sol",
  "compiler": {
    "name": "solc",
    "version": "0.8.19+commit.7dd6d404.Emscripten.clang"
  },
  "schemaVersion": "3.4.7",
  "updatedAt": "2024-04-03T11:45:35.551Z",
  "devdoc": {
    "kind": "dev",
    "methods": {},
    "version": 1
  },
  "userdoc": {
    "kind": "user",
    "methods": {},
    "version": 1
  }
}